:020000001628C0
:0E0006008312031321088A00200882000800DC
:1000140003208A110A128000840AA00A0319A10A83
:08002400F003031D0A28080087
:10002C0083120313A201A3018030A4000030A500A9
:10003C008316031788018901860183120313860135
:10004C00061C2E288030A400A5018030860046288E
:10005C0000302306031D342802302206031D3C28E1
:10006C00A40DA50D2410A201A3014428A50CA40CD9
:10007C00A513251BA517A20A0319A30A2408860099
:10008C000D30FC00FB30FD00FD0B4A28FC0B4A2810
:08009C00000000002628512895
:04400E00F22F000786
:00000001FF
