:0200000037289F
:0E0006008312031321088A00200882000800DC
:1000140003208A110A128000840AA00A0319A10A83
:08002400F003031D0A28080087
:10002C00831603178C1C1C2800001628831203133C
:10003C002A0803178D0003132B0803178C00831653
:10004C008C130C150B08F0008B1355308D00AA3057
:10005C008D008C14F01B34288B1335288B170C1146
:02006C0008008A
:10006E006D3083120313A2000030A3003F30A400B2
:10007E000030A500A601A701A801A9018316031748
:10008E00880189018601831203138601091C5228F7
:10009E00220886006828A80A0319A90A8030AA0037
:1000AE002808AB001620831203132808803EAA00EE
:1000BE002608AB00162083120313A601A7012408FD
:1000CE0086004130FC00EE30FD00FD0B6C28FC0B71
:0800DE006C2800004D28722877
:04400E00F22F000786
:00000001FF
